{
  "_format": "hh-sol-artifact-1",
  "contractName": "PowerBomb",
  "sourceName": "contracts/PowerBomb.sol",
  "abi": [
    {
      "anonymous": false,
      "inputs": [
        {
          "indexed": false,
          "internalType": "address",
          "name": "receiver",
          "type": "address"
        },
        {
          "indexed": false,
          "internalType": "uint256",
          "name": "claimedRewardTokenAfterFee",
          "type": "uint256"
        },
        {
          "indexed": false,
          "internalType": "uint256",
          "name": "fee",
          "type": "uint256"
        }
      ],
      "name": "ClaimReward",
      "type": "event"
    },
    {
      "anonymous": false,
      "inputs": [
        {
          "indexed": false,
          "internalType": "address",
          "name": "tokenDeposit",
          "type": "address"
        },
        {
          "indexed": false,
          "internalType": "uint256",
          "name": "amountToken",
          "type": "uint256"
        },
        {
          "indexed": false,
          "internalType": "uint256",
          "name": "amountSLP",
          "type": "uint256"
        }
      ],
      "name": "Deposit",
      "type": "event"
    },
    {
      "anonymous": false,
      "inputs": [
        {
          "indexed": false,
          "internalType": "uint256",
          "name": "harvestedWONE",
          "type": "uint256"
        },
        {
          "indexed": false,
          "internalType": "uint256",
          "name": "harvestedSUSHI",
          "type": "uint256"
        },
        {
          "indexed": false,
          "internalType": "uint256",
          "name": "swappedRewardTokenAfterFee",
          "type": "uint256"
        },
        {
          "indexed": false,
          "internalType": "uint256",
          "name": "fee",
          "type": "uint256"
        }
      ],
      "name": "Harvest",
      "type": "event"
    },
    {
      "anonymous": false,
      "inputs": [
        {
          "indexed": true,
          "internalType": "address",
          "name": "previousOwner",
          "type": "address"
        },
        {
          "indexed": true,
          "internalType": "address",
          "name": "newOwner",
          "type": "address"
        }
      ],
      "name": "OwnershipTransferred",
      "type": "event"
    },
    {
      "anonymous": false,
      "inputs": [
        {
          "indexed": false,
          "internalType": "address",
          "name": "account",
          "type": "address"
        }
      ],
      "name": "Paused",
      "type": "event"
    },
    {
      "anonymous": false,
      "inputs": [
        {
          "indexed": false,
          "internalType": "address",
          "name": "account",
          "type": "address"
        }
      ],
      "name": "Unpaused",
      "type": "event"
    },
    {
      "anonymous": false,
      "inputs": [
        {
          "indexed": false,
          "internalType": "address",
          "name": "tokenWithdraw",
          "type": "address"
        },
        {
          "indexed": false,
          "internalType": "uint256",
          "name": "amount",
          "type": "uint256"
        }
      ],
      "name": "Withdraw",
      "type": "event"
    },
    {
      "inputs": [],
      "name": "accRewardPerSLP",
      "outputs": [
        {
          "internalType": "uint256",
          "name": "",
          "type": "uint256"
        }
      ],
      "stateMutability": "view",
      "type": "function"
    },
    {
      "inputs": [],
      "name": "admin",
      "outputs": [
        {
          "internalType": "address",
          "name": "",
          "type": "address"
        }
      ],
      "stateMutability": "view",
      "type": "function"
    },
    {
      "inputs": [
        {
          "internalType": "address",
          "name": "account",
          "type": "address"
        }
      ],
      "name": "claimReward",
      "outputs": [],
      "stateMutability": "nonpayable",
      "type": "function"
    },
    {
      "inputs": [
        {
          "internalType": "contract IERC20Upgradeable",
          "name": "token",
          "type": "address"
        },
        {
          "internalType": "uint256",
          "name": "amount",
          "type": "uint256"
        }
      ],
      "name": "deposit",
      "outputs": [],
      "stateMutability": "nonpayable",
      "type": "function"
    },
    {
      "inputs": [],
      "name": "getAllPool",
      "outputs": [
        {
          "internalType": "uint256",
          "name": "amount",
          "type": "uint256"
        }
      ],
      "stateMutability": "view",
      "type": "function"
    },
    {
      "inputs": [],
      "name": "getAllPoolInUSD",
      "outputs": [
        {
          "internalType": "uint256",
          "name": "",
          "type": "uint256"
        }
      ],
      "stateMutability": "view",
      "type": "function"
    },
    {
      "inputs": [],
      "name": "getPoolAccumulatedReward",
      "outputs": [
        {
          "internalType": "uint256",
          "name": "",
          "type": "uint256"
        }
      ],
      "stateMutability": "view",
      "type": "function"
    },
    {
      "inputs": [],
      "name": "getPoolPendingReward",
      "outputs": [
        {
          "internalType": "uint256",
          "name": "pendingWONE",
          "type": "uint256"
        },
        {
          "internalType": "uint256",
          "name": "pendingSUSHI",
          "type": "uint256"
        }
      ],
      "stateMutability": "view",
      "type": "function"
    },
    {
      "inputs": [],
      "name": "getPricePerFullShare",
      "outputs": [
        {
          "internalType": "uint256",
          "name": "",
          "type": "uint256"
        }
      ],
      "stateMutability": "view",
      "type": "function"
    },
    {
      "inputs": [
        {
          "internalType": "address",
          "name": "account",
          "type": "address"
        }
      ],
      "name": "getUserAccumulatedReward",
      "outputs": [
        {
          "internalType": "uint256",
          "name": "",
          "type": "uint256"
        }
      ],
      "stateMutability": "view",
      "type": "function"
    },
    {
      "inputs": [
        {
          "internalType": "address",
          "name": "account",
          "type": "address"
        }
      ],
      "name": "getUserBalance",
      "outputs": [
        {
          "internalType": "uint256",
          "name": "",
          "type": "uint256"
        }
      ],
      "stateMutability": "view",
      "type": "function"
    },
    {
      "inputs": [
        {
          "internalType": "address",
          "name": "account",
          "type": "address"
        }
      ],
      "name": "getUserBalanceInUSD",
      "outputs": [
        {
          "internalType": "uint256",
          "name": "",
          "type": "uint256"
        }
      ],
      "stateMutability": "view",
      "type": "function"
    },
    {
      "inputs": [
        {
          "internalType": "address",
          "name": "account",
          "type": "address"
        }
      ],
      "name": "getUserPendingReward",
      "outputs": [
        {
          "internalType": "uint256",
          "name": "",
          "type": "uint256"
        }
      ],
      "stateMutability": "view",
      "type": "function"
    },
    {
      "inputs": [],
      "name": "harvest",
      "outputs": [],
      "stateMutability": "nonpayable",
      "type": "function"
    },
    {
      "inputs": [
        {
          "internalType": "contract IERC20Upgradeable",
          "name": "_rewardToken",
          "type": "address"
        }
      ],
      "name": "initialize",
      "outputs": [],
      "stateMutability": "nonpayable",
      "type": "function"
    },
    {
      "inputs": [],
      "name": "owner",
      "outputs": [
        {
          "internalType": "address",
          "name": "",
          "type": "address"
        }
      ],
      "stateMutability": "view",
      "type": "function"
    },
    {
      "inputs": [],
      "name": "paused",
      "outputs": [
        {
          "internalType": "bool",
          "name": "",
          "type": "bool"
        }
      ],
      "stateMutability": "view",
      "type": "function"
    },
    {
      "inputs": [],
      "name": "renounceOwnership",
      "outputs": [],
      "stateMutability": "nonpayable",
      "type": "function"
    },
    {
      "inputs": [],
      "name": "rewardToken",
      "outputs": [
        {
          "internalType": "contract IERC20Upgradeable",
          "name": "",
          "type": "address"
        }
      ],
      "stateMutability": "view",
      "type": "function"
    },
    {
      "inputs": [],
      "name": "rewardWithdrawalFeePerc",
      "outputs": [
        {
          "internalType": "uint256",
          "name": "",
          "type": "uint256"
        }
      ],
      "stateMutability": "view",
      "type": "function"
    },
    {
      "inputs": [
        {
          "internalType": "address",
          "name": "_admin",
          "type": "address"
        }
      ],
      "name": "setAdmin",
      "outputs": [],
      "stateMutability": "nonpayable",
      "type": "function"
    },
    {
      "inputs": [
        {
          "internalType": "uint256",
          "name": "_rewardWithdrawalFeePerc",
          "type": "uint256"
        }
      ],
      "name": "setRewardWithdrawalFeePerc",
      "outputs": [],
      "stateMutability": "nonpayable",
      "type": "function"
    },
    {
      "inputs": [
        {
          "internalType": "uint256",
          "name": "_slippagePerc",
          "type": "uint256"
        }
      ],
      "name": "setSlippagePerc",
      "outputs": [],
      "stateMutability": "nonpayable",
      "type": "function"
    },
    {
      "inputs": [
        {
          "internalType": "uint256",
          "name": "_tvlMaxLimit",
          "type": "uint256"
        }
      ],
      "name": "setTVLMaxLimit",
      "outputs": [],
      "stateMutability": "nonpayable",
      "type": "function"
    },
    {
      "inputs": [
        {
          "internalType": "address",
          "name": "_treasury",
          "type": "address"
        }
      ],
      "name": "setTreasury",
      "outputs": [],
      "stateMutability": "nonpayable",
      "type": "function"
    },
    {
      "inputs": [
        {
          "internalType": "uint256",
          "name": "_yieldFeePerc",
          "type": "uint256"
        }
      ],
      "name": "setYieldFeePerc",
      "outputs": [],
      "stateMutability": "nonpayable",
      "type": "function"
    },
    {
      "inputs": [],
      "name": "slippagePerc",
      "outputs": [
        {
          "internalType": "uint256",
          "name": "",
          "type": "uint256"
        }
      ],
      "stateMutability": "view",
      "type": "function"
    },
    {
      "inputs": [
        {
          "internalType": "address",
          "name": "newOwner",
          "type": "address"
        }
      ],
      "name": "transferOwnership",
      "outputs": [],
      "stateMutability": "nonpayable",
      "type": "function"
    },
    {
      "inputs": [],
      "name": "treasury",
      "outputs": [
        {
          "internalType": "address",
          "name": "",
          "type": "address"
        }
      ],
      "stateMutability": "view",
      "type": "function"
    },
    {
      "inputs": [],
      "name": "tvlMaxLimit",
      "outputs": [
        {
          "internalType": "uint256",
          "name": "",
          "type": "uint256"
        }
      ],
      "stateMutability": "view",
      "type": "function"
    },
    {
      "inputs": [
        {
          "internalType": "address",
          "name": "",
          "type": "address"
        }
      ],
      "name": "userInfo",
      "outputs": [
        {
          "internalType": "uint256",
          "name": "SLPBalance",
          "type": "uint256"
        },
        {
          "internalType": "uint256",
          "name": "rewardStartAt",
          "type": "uint256"
        }
      ],
      "stateMutability": "view",
      "type": "function"
    },
    {
      "inputs": [
        {
          "internalType": "contract IERC20Upgradeable",
          "name": "token",
          "type": "address"
        },
        {
          "internalType": "uint256",
          "name": "amountInSLP",
          "type": "uint256"
        }
      ],
      "name": "withdraw",
      "outputs": [],
      "stateMutability": "nonpayable",
      "type": "function"
    },
    {
      "inputs": [],
      "name": "yieldFeePerc",
      "outputs": [
        {
          "internalType": "uint256",
          "name": "",
          "type": "uint256"
        }
      ],
      "stateMutability": "view",
      "type": "function"
    }
  ],
  "bytecode": "0x608060405234801561001057600080fd5b50612d51806100206000396000f3fe608060405234801561001057600080fd5b50600436106101fb5760003560e01c806380b1192d1161011a578063c4d66de8116100ad578063f2fde38b1161007c578063f2fde38b14610422578063f3fef3a314610435578063f7c618c114610448578063f851a4401461045b578063fe37c34e1461046e57600080fd5b8063c4d66de8146103d6578063c6710629146103e9578063d279c191146103fc578063f0f442601461040f57600080fd5b8063b1a41085116100e9578063b1a4108514610389578063ba63301714610392578063bd244af4146103a5578063be892f00146103ad57600080fd5b806380b1192d146103555780638da5cb5b1461035d578063a20a4cb41461036e578063a99c5da21461037657600080fd5b806347e7ef241161019257806361d027b31161016157806361d027b314610307578063704b6c0214610332578063715018a61461034557806377c7b8fc1461034d57600080fd5b806347e7ef24146102c35780634fefd8b5146102d65780635c975abb146102e9578063616094a7146102ff57600080fd5b806327100955116101ce578063271009551461027657806333c42008146102895780634641257d14610292578063477348921461029a57600080fd5b80630b55d7c31461020057806318177d9b1461021c5780631959a002146102255780631b13f6df14610261575b600080fd5b61020960d25481565b6040519081526020015b60405180910390f35b61020960ce5481565b61024c6102333660046127de565b60d0602052600090815260409020805460019091015482565b60408051928352602083019190915201610213565b61027461026f36600461295e565b610477565b005b61027461028436600461295e565b6104af565b61020960cd5481565b6102746104de565b6102096102a83660046127de565b6001600160a01b0316600090815260d0602052604090205490565b6102746102d13660046128e2565b610b8b565b6102746102e436600461295e565b61124e565b60975460ff166040519015158152602001610213565b61024c61127d565b60ca5461031a906001600160a01b031681565b6040516001600160a01b039091168152602001610213565b6102746103403660046127de565b61142c565b610274611478565b6102096114ae565b60d354610209565b6033546001600160a01b031661031a565b6102096115fe565b61027461038436600461295e565b61168f565b61020960cc5481565b6102096103a03660046127de565b6116be565b610209611704565b6102096103bb3660046127de565b6001600160a01b0316600090815260d4602052604090205490565b6102746103e43660046127de565b611749565b6102096103f73660046127de565b61193f565b61027461040a3660046127de565b61198f565b61027461041d3660046127de565b611ae2565b6102746104303660046127de565b611b2e565b6102746104433660046128e2565b611bc9565b60c95461031a906001600160a01b031681565b60cb5461031a906001600160a01b031681565b61020960cf5481565b6033546001600160a01b031633146104aa5760405162461bcd60e51b81526004016104a190612b4c565b60405180910390fd5b60ce55565b6033546001600160a01b031633146104d95760405162461bcd60e51b81526004016104a190612b4c565b60cd55565b604051630c7e663b60e11b8152600660048201523060248201527367da5f2ffaddff067ab9d5f025f8810634d84287906318fccc7690604401600060405180830381600087803b15801561053157600080fd5b505af1158015610545573d6000803e3d6000fd5b505060c9546040516370a0823160e01b8152306004820152600093506001600160a01b0390911691506370a082319060240160206040518083038186803b15801561058f57600080fd5b505afa1580156105a3573d6000803e3d6000fd5b505050506040513d601f19601f820116820180604052508101906105c79190612977565b6040516370a0823160e01b815230600482015290915060009073cf664087a5bb0237a0bad6742852ec6c8d69a27a906370a082319060240160206040518083038186803b15801561061757600080fd5b505afa15801561062b573d6000803e3d6000fd5b505050506040513d601f19601f8201168201806040525081019061064f9190612977565b9050670de0b6b3a764000081111561078c5760408051600280825260608201835260009260208301908036833701905050905073cf664087a5bb0237a0bad6742852ec6c8d69a27a816000815181106106aa576106aa612c9a565b6001600160a01b03928316602091820292909201015260c9548251911690829060019081106106db576106db612c9a565b6001600160a01b03909216602092830291909101909101526040516338ed173960e01b8152731b02da8cb0d097eb8d57a175b88c7d8b47997506906338ed173990610733908590600090869030904290600401612b81565b600060405180830381600087803b15801561074d57600080fd5b505af1158015610761573d6000803e3d6000fd5b505050506040513d6000823e601f3d908101601f1916820160405261078991908101906127fb565b50505b6040516370a0823160e01b815230600482015260009073bec775cb42abfa4288de81f387a9b1a3c4bc552a906370a082319060240160206040518083038186803b1580156107d957600080fd5b505afa1580156107ed573d6000803e3d6000fd5b505050506040513d601f19601f820116820180604052508101906108119190612977565b9050670de0b6b3a764000081111561099857604080516003808252608082019092526000916020820160608036833701905050905073bec775cb42abfa4288de81f387a9b1a3c4bc552a8160008151811061086e5761086e612c9a565b60200260200101906001600160a01b031690816001600160a01b03168152505073cf664087a5bb0237a0bad6742852ec6c8d69a27a816001815181106108b6576108b6612c9a565b6001600160a01b03928316602091820292909201015260c9548251911690829060029081106108e7576108e7612c9a565b6001600160a01b03909216602092830291909101909101526040516338ed173960e01b8152731b02da8cb0d097eb8d57a175b88c7d8b47997506906338ed17399061093f908590600090869030904290600401612b81565b600060405180830381600087803b15801561095957600080fd5b505af115801561096d573d6000803e3d6000fd5b505050506040513d6000823e601f3d908101601f1916820160405261099591908101906127fb565b50505b60c9546040516370a0823160e01b815230600482015284916001600160a01b0316906370a082319060240160206040518083038186803b1580156109db57600080fd5b505afa1580156109ef573d6000803e3d6000fd5b505050506040513d601f19601f82011682018060405250810190610a139190612977565b610a1d9190612c41565b92508260d36000828254610a319190612be8565b909155505060cc5460009061271090610a4a9086612c22565b610a549190612c00565b60ca5460c954919250610a74916001600160a01b039081169116836120a4565b610a7e8185612c41565b6040516393f1a40b60e01b8152600660048201523060248201529094506000907367da5f2ffaddff067ab9d5f025f8810634d84287906393f1a40b90604401604080518083038186803b158015610ad457600080fd5b505afa158015610ae8573d6000803e3d6000fd5b505050506040513d601f19601f82011682018060405250810190610b0c9190612990565b50905080610b2286670de0b6b3a7640000612c22565b610b2c9190612c00565b60cf54610b399190612be8565b60cf556040805185815260208101859052908101869052606081018390527f243f485011fbdc7e8b98333fcacc9182c3142988b75c6a46fafdf874caa88f6a9060800160405180910390a15050505050565b60026065541415610bde5760405162461bcd60e51b815260206004820152601f60248201527f5265656e7472616e637947756172643a207265656e7472616e742063616c6c0060448201526064016104a1565b600260655560975460ff1615610c295760405162461bcd60e51b815260206004820152601060248201526f14185d5cd8589b194e881c185d5cd95960821b60448201526064016104a1565b60d254610c34611704565b10610c775760405162461bcd60e51b81526020600482015260136024820152720a8ac9840dac2f04098d2dad2e840e4cac2c6d606b1b60448201526064016104a1565b6040516393f1a40b60e01b8152600660048201523060248201526000907367da5f2ffaddff067ab9d5f025f8810634d84287906393f1a40b90604401604080518083038186803b158015610cca57600080fd5b505afa158015610cde573d6000803e3d6000fd5b505050506040513d601f19601f82011682018060405250810190610d029190612990565b5090508015610d1357610d136104de565b610d286001600160a01b03841633308561210c565b33600090815260d1602052604090204390556001600160a01b038316600080516020612cfc8339815191521415610e55576000610d8c600080516020612cfc833981519152600080516020612cdc833981519152610d87600287612c00565b61214a565b9050731b02da8cb0d097eb8d57a175b88c7d8b4799750663e8e33700600080516020612cfc833981519152600080516020612cdc833981519152610dd1600288612c00565b8560008030426040518963ffffffff1660e01b8152600401610dfa989796959493929190612a82565b606060405180830381600087803b158015610e1457600080fd5b505af1158015610e28573d6000803e3d6000fd5b505050506040513d601f19601f82011682018060405250810190610e4c91906129b4565b50505050610f67565b6001600160a01b038316600080516020612cdc8339815191521415610f67576000610ea2600080516020612cdc833981519152600080516020612cfc833981519152610d87600287612c00565b9050731b02da8cb0d097eb8d57a175b88c7d8b4799750663e8e33700600080516020612cdc833981519152600080516020612cfc833981519152610ee7600288612c00565b8560008030426040518963ffffffff1660e01b8152600401610f10989796959493929190612a82565b606060405180830381600087803b158015610f2a57600080fd5b505af1158015610f3e573d6000803e3d6000fd5b505050506040513d601f19601f82011682018060405250810190610f6291906129b4565b505050505b6040516370a0823160e01b8152306004820152600090600080516020612cfc833981519152906370a082319060240160206040518083038186803b158015610fae57600080fd5b505afa158015610fc2573d6000803e3d6000fd5b505050506040513d601f19601f82011682018060405250810190610fe69190612977565b9050801561100757611007600080516020612cfc83398151915233836120a4565b6040516370a0823160e01b8152306004820152600090600080516020612cdc833981519152906370a082319060240160206040518083038186803b15801561104e57600080fd5b505afa158015611062573d6000803e3d6000fd5b505050506040513d601f19601f820116820180604052508101906110869190612977565b905080156110a7576110a7600080516020612cdc83398151915233836120a4565b6040516370a0823160e01b8152306004820152600090730c51171b913db10ade3fd625548e69c9c63afb96906370a082319060240160206040518083038186803b1580156110f457600080fd5b505afa158015611108573d6000803e3d6000fd5b505050506040513d601f19601f8201168201806040525081019061112c9190612977565b604051638dbdbe6d60e01b815260066004820152602481018290523060448201529091507367da5f2ffaddff067ab9d5f025f8810634d8428790638dbdbe6d90606401600060405180830381600087803b15801561118957600080fd5b505af115801561119d573d6000803e3d6000fd5b505033600090815260d06020526040902080549092506111bf91508390612be8565b815560cf54670de0b6b3a7640000906111d89084612c22565b6111e29190612c00565b81600101546111f19190612be8565b6001820155604080516001600160a01b0389168152602081018890529081018390527f90890809c654f11d6e72a28fa60149770a0d11ec6c92319d6ceb2bb0a4ea1a159060600160405180910390a1505060016065555050505050565b6033546001600160a01b031633146112785760405162461bcd60e51b81526004016104a190612b4c565b60cc55565b6040516312390ebd60e21b81526006600482015230602482015260009081907325836011bbc0d5b6db96b20361a474cbc5245b45906348e43af49060440160206040518083038186803b1580156112d357600080fd5b505afa1580156112e7573d6000803e3d6000fd5b505050506040513d601f19601f8201168201806040525081019061130b9190612977565b6040516370a0823160e01b815230600482015290925073cf664087a5bb0237a0bad6742852ec6c8d69a27a906370a082319060240160206040518083038186803b15801561135857600080fd5b505afa15801561136c573d6000803e3d6000fd5b505050506040513d601f19601f820116820180604052508101906113909190612977565b61139a9083612be8565b60405163065509bb60e21b8152600660048201523060248201529092507367da5f2ffaddff067ab9d5f025f8810634d842879063195426ec9060440160206040518083038186803b1580156113ee57600080fd5b505afa158015611402573d6000803e3d6000fd5b505050506040513d601f19601f820116820180604052508101906114269190612977565b90509091565b6033546001600160a01b031633146114565760405162461bcd60e51b81526004016104a190612b4c565b60cb80546001600160a01b0319166001600160a01b0392909216919091179055565b6033546001600160a01b031633146114a25760405162461bcd60e51b81526004016104a190612b4c565b6114ac60006122bd565b565b6000806000730c51171b913db10ade3fd625548e69c9c63afb966001600160a01b0316630902f1ac6040518163ffffffff1660e01b815260040160606040518083038186803b15801561150057600080fd5b505afa158015611514573d6000803e3d6000fd5b505050506040513d601f19601f82011682018060405250810190611538919061290e565b509092509050600061154a8284612bbd565b6001600160701b03169050730c51171b913db10ade3fd625548e69c9c63afb966001600160a01b03166318160ddd6040518163ffffffff1660e01b815260040160206040518083038186803b1580156115a257600080fd5b505afa1580156115b6573d6000803e3d6000fd5b505050506040513d601f19601f820116820180604052508101906115da9190612977565b6115ec82670de0b6b3a7640000612c22565b6115f69190612c00565b935050505090565b6040516393f1a40b60e01b8152600660048201523060248201526000907367da5f2ffaddff067ab9d5f025f8810634d84287906393f1a40b90604401604080518083038186803b15801561165157600080fd5b505afa158015611665573d6000803e3d6000fd5b505050506040513d601f19601f820116820180604052508101906116899190612990565b50919050565b6033546001600160a01b031633146116b95760405162461bcd60e51b81526004016104a190612b4c565b60d255565b6000670de0b6b3a76400006116d16114ae565b6001600160a01b038416600090815260d060205260409020546116f49190612c22565b6116fe9190612c00565b92915050565b60008061170f6115fe565b90508061171e57600091505090565b670de0b6b3a764000061172f6114ae565b6117399083612c22565b6117439190612c00565b91505090565b600054610100900460ff1680611762575060005460ff16155b61177e5760405162461bcd60e51b81526004016104a190612afe565b600054610100900460ff161580156117a0576000805461ffff19166101011790555b6117a861230f565b6101f460cc55600a60cd55603260ce5560335460ca80546001600160a01b039283166001600160a01b0319918216811790925560cb8054821690921790915560c98054909116918416919091179055611826600080516020612cfc833981519152731b02da8cb0d097eb8d57a175b88c7d8b4799750660001961238a565b611855600080516020612cdc833981519152731b02da8cb0d097eb8d57a175b88c7d8b4799750660001961238a565b61188a73cf664087a5bb0237a0bad6742852ec6c8d69a27a731b02da8cb0d097eb8d57a175b88c7d8b4799750660001961238a565b6118bf73bec775cb42abfa4288de81f387a9b1a3c4bc552a731b02da8cb0d097eb8d57a175b88c7d8b4799750660001961238a565b6118f4730c51171b913db10ade3fd625548e69c9c63afb96731b02da8cb0d097eb8d57a175b88c7d8b4799750660001961238a565b611929730c51171b913db10ade3fd625548e69c9c63afb967367da5f2ffaddff067ab9d5f025f8810634d8428760001961238a565b801561193b576000805461ff00191690555b5050565b6001600160a01b038116600090815260d060205260408120600181015460cf548254670de0b6b3a76400009161197491612c22565b61197e9190612c00565b6119889190612c41565b9392505050565b6119976104de565b6001600160a01b038116600090815260d06020526040902080541561193b5760008160010154670de0b6b3a764000060cf5484600001546119d89190612c22565b6119e29190612c00565b6119ec9190612c41565b90508082600101546119fe9190612be8565b600183015560cd5460009061271090611a179084612c22565b611a219190612c00565b60ca5460c954919250611a41916001600160a01b039081169116836120a4565b611a4b8183612c41565b60c954909250611a65906001600160a01b031685846120a4565b6001600160a01b038416600090815260d4602052604081208054849290611a8d908490612be8565b9091555050604080516001600160a01b0386168152602081018490529081018290527fe74e5c9d4ac1fc33412485f18c159a0a391efe287ab3fd271123f30e6bacf4e39060600160405180910390a150505050565b6033546001600160a01b03163314611b0c5760405162461bcd60e51b81526004016104a190612b4c565b60ca80546001600160a01b0319166001600160a01b0392909216919091179055565b6033546001600160a01b03163314611b585760405162461bcd60e51b81526004016104a190612b4c565b6001600160a01b038116611bbd5760405162461bcd60e51b815260206004820152602660248201527f4f776e61626c653a206e6577206f776e657220697320746865207a65726f206160448201526564647265737360d01b60648201526084016104a1565b611bc6816122bd565b50565b60026065541415611c1c5760405162461bcd60e51b815260206004820152601f60248201527f5265656e7472616e637947756172643a207265656e7472616e742063616c6c0060448201526064016104a1565b600260655580611c6e5760405162461bcd60e51b815260206004820152601d60248201527f57697468647261773a20696e76616c696420616d6f756e74496e534c5000000060448201526064016104a1565b33600090815260d0602052604090208054611ccb5760405162461bcd60e51b815260206004820152601d60248201527f57697468647261773a206e6f7468696e6720746f20776974686472617700000060448201526064016104a1565b33600090815260d16020526040902054431415611d2a5760405162461bcd60e51b815260206004820152601b60248201527f57697468647261773a2077697468696e2073616d6520626c6f636b000000000060448201526064016104a1565b611d333361198f565b8054611d40908390612c41565b80825560cf54670de0b6b3a764000091611d5a9190612c22565b611d649190612c00565b6001820155604051630ad58d2f60e01b815260066004820152602481018390523060448201527367da5f2ffaddff067ab9d5f025f8810634d8428790630ad58d2f90606401600060405180830381600087803b158015611dc357600080fd5b505af1158015611dd7573d6000803e3d6000fd5b506000925050506001600160a01b038416600080516020612cfc8339815191521415611f0e57604051635d5155ef60e11b81526000908190731b02da8cb0d097eb8d57a175b88c7d8b479975069063baa2abde90611e6190600080516020612cfc83398151915290600080516020612cdc833981519152908a908790819030904290600401612a42565b6040805180830381600087803b158015611e7a57600080fd5b505af1158015611e8e573d6000803e3d6000fd5b505050506040513d601f19601f82011682018060405250810190611eb29190612990565b915091506000611edf600080516020612cdc833981519152600080516020612cfc8339815191528461214a565b9050611eeb8184612be8565b9350611f06600080516020612cfc83398151915233866120a4565b505050612057565b6001600160a01b038416600080516020612cdc833981519152141561203657604051635d5155ef60e11b81526000908190731b02da8cb0d097eb8d57a175b88c7d8b479975069063baa2abde90611f9190600080516020612cfc83398151915290600080516020612cdc833981519152908a908790819030904290600401612a42565b6040805180830381600087803b158015611faa57600080fd5b505af1158015611fbe573d6000803e3d6000fd5b505050506040513d601f19601f82011682018060405250810190611fe29190612990565b91509150600061200f600080516020612cfc833981519152600080516020612cdc8339815191528561214a565b905061201b8183612be8565b9350611f06600080516020612cdc83398151915233866120a4565b5081612057730c51171b913db10ade3fd625548e69c9c63afb9633836120a4565b604080516001600160a01b0386168152602081018390527f884edad9ce6fa2440d8a54cc123490eb96d2768479d49ff9c7366125a9424364910160405180910390a1505060016065555050565b6040516001600160a01b03831660248201526044810182905261210790849063a9059cbb60e01b906064015b60408051601f198184030181529190526020810180516001600160e01b03166001600160e01b0319909316929092179091526124ae565b505050565b6040516001600160a01b03808516602483015283166044820152606481018290526121449085906323b872dd60e01b906084016120d0565b50505050565b60408051600280825260608201835260009283929190602083019080368337019050509050848160008151811061218357612183612c9a565b60200260200101906001600160a01b031690816001600160a01b03168152505083816001815181106121b7576121b7612c9a565b60200260200101906001600160a01b031690816001600160a01b031681525050600061271060ce546127106121ec9190612c41565b6121f69086612c22565b6122009190612c00565b6040516338ed173960e01b8152909150731b02da8cb0d097eb8d57a175b88c7d8b47997506906338ed1739906122429087908590879030904290600401612b81565b600060405180830381600087803b15801561225c57600080fd5b505af1158015612270573d6000803e3d6000fd5b505050506040513d6000823e601f3d908101601f1916820160405261229891908101906127fb565b6001815181106122aa576122aa612c9a565b6020026020010151925050509392505050565b603380546001600160a01b038381166001600160a01b0319831681179093556040519116919082907f8be0079c531659141344cd1fd0a4f28419497f9722a3daafe3b4186f6b6457e090600090a35050565b600054610100900460ff1680612328575060005460ff16155b6123445760405162461bcd60e51b81526004016104a190612afe565b600054610100900460ff16158015612366576000805461ffff19166101011790555b61236e612580565b6123766125ea565b8015611bc6576000805461ff001916905550565b8015806124135750604051636eb1769f60e11b81523060048201526001600160a01b03838116602483015284169063dd62ed3e9060440160206040518083038186803b1580156123d957600080fd5b505afa1580156123ed573d6000803e3d6000fd5b505050506040513d601f19601f820116820180604052508101906124119190612977565b155b61247e5760405162461bcd60e51b815260206004820152603660248201527f5361666545524332303a20617070726f76652066726f6d206e6f6e2d7a65726f60448201527520746f206e6f6e2d7a65726f20616c6c6f77616e636560501b60648201526084016104a1565b6040516001600160a01b03831660248201526044810182905261210790849063095ea7b360e01b906064016120d0565b6000612503826040518060400160405280602081526020017f5361666545524332303a206c6f772d6c6576656c2063616c6c206661696c6564815250856001600160a01b031661264a9092919063ffffffff16565b805190915015612107578080602001905181019061252191906128c0565b6121075760405162461bcd60e51b815260206004820152602a60248201527f5361666545524332303a204552433230206f7065726174696f6e20646964206e6044820152691bdd081cdd58d8d9595960b21b60648201526084016104a1565b600054610100900460ff1680612599575060005460ff16155b6125b55760405162461bcd60e51b81526004016104a190612afe565b600054610100900460ff16158015612376576000805461ffff19166101011790558015611bc6576000805461ff001916905550565b600054610100900460ff1680612603575060005460ff16155b61261f5760405162461bcd60e51b81526004016104a190612afe565b600054610100900460ff16158015612641576000805461ffff19166101011790555b612376336122bd565b60606126598484600085612661565b949350505050565b6060824710156126c25760405162461bcd60e51b815260206004820152602660248201527f416464726573733a20696e73756666696369656e742062616c616e636520666f6044820152651c8818d85b1b60d21b60648201526084016104a1565b843b6127105760405162461bcd60e51b815260206004820152601d60248201527f416464726573733a2063616c6c20746f206e6f6e2d636f6e747261637400000060448201526064016104a1565b600080866001600160a01b0316858760405161272c9190612a26565b60006040518083038185875af1925050503d8060008114612769576040519150601f19603f3d011682016040523d82523d6000602084013e61276e565b606091505b509150915061277e828286612789565b979650505050505050565b60608315612798575081611988565b8251156127a85782518084602001fd5b8160405162461bcd60e51b81526004016104a19190612acb565b80516001600160701b03811681146127d957600080fd5b919050565b6000602082840312156127f057600080fd5b813561198881612cc6565b6000602080838503121561280e57600080fd5b825167ffffffffffffffff8082111561282657600080fd5b818501915085601f83011261283a57600080fd5b81518181111561284c5761284c612cb0565b8060051b604051601f19603f8301168101818110858211171561287157612871612cb0565b604052828152858101935084860182860187018a101561289057600080fd5b600095505b838610156128b3578051855260019590950194938601938601612895565b5098975050505050505050565b6000602082840312156128d257600080fd5b8151801515811461198857600080fd5b600080604083850312156128f557600080fd5b823561290081612cc6565b946020939093013593505050565b60008060006060848603121561292357600080fd5b61292c846127c2565b925061293a602085016127c2565b9150604084015163ffffffff8116811461295357600080fd5b809150509250925092565b60006020828403121561297057600080fd5b5035919050565b60006020828403121561298957600080fd5b5051919050565b600080604083850312156129a357600080fd5b505080516020909101519092909150565b6000806000606084860312156129c957600080fd5b8351925060208401519150604084015190509250925092565b600081518084526020808501945080840160005b83811015612a1b5781516001600160a01b0316875295820195908201906001016129f6565b509495945050505050565b60008251612a38818460208701612c58565b9190910192915050565b6001600160a01b039788168152958716602087015260408601949094526060850192909252608084015290921660a082015260c081019190915260e00190565b6001600160a01b039889168152968816602088015260408701959095526060860193909352608085019190915260a084015290921660c082015260e08101919091526101000190565b6020815260008251806020840152612aea816040850160208701612c58565b601f01601f19169190910160400192915050565b6020808252602e908201527f496e697469616c697a61626c653a20636f6e747261637420697320616c72656160408201526d191e481a5b9a5d1a585b1a5e995960921b606082015260800190565b6020808252818101527f4f776e61626c653a2063616c6c6572206973206e6f7420746865206f776e6572604082015260600190565b85815284602082015260a060408201526000612ba060a08301866129e2565b6001600160a01b0394909416606083015250608001529392505050565b60006001600160701b03808316818516808303821115612bdf57612bdf612c84565b01949350505050565b60008219821115612bfb57612bfb612c84565b500190565b600082612c1d57634e487b7160e01b600052601260045260246000fd5b500490565b6000816000190483118215151615612c3c57612c3c612c84565b500290565b600082821015612c5357612c53612c84565b500390565b60005b83811015612c73578181015183820152602001612c5b565b838111156121445750506000910152565b634e487b7160e01b600052601160045260246000fd5b634e487b7160e01b600052603260045260246000fd5b634e487b7160e01b600052604160045260246000fd5b6001600160a01b0381168114611bc657600080fdfe000000000000000000000000985458e523db3d53125813ed68c274899e9dfab40000000000000000000000003c2b8be99c50593081eaa2a724f0b8285f5aba8fa2646970667358221220577d062b3379642087880eb029fbd0890511349214476e8b8d0f4e9ac179a77764736f6c63430008070033",
  "linkReferences": {},
  "deployedLinkReferences": {}
}