{
  "_format": "hh-sol-artifact-1",
  "contractName": "PowerBombHelper",
  "sourceName": "contracts/PowerBombHelper.sol",
  "abi": [
    {
      "anonymous": false,
      "inputs": [
        {
          "indexed": true,
          "internalType": "address",
          "name": "previousOwner",
          "type": "address"
        },
        {
          "indexed": true,
          "internalType": "address",
          "name": "newOwner",
          "type": "address"
        }
      ],
      "name": "OwnershipTransferred",
      "type": "event"
    },
    {
      "inputs": [
        {
          "internalType": "address",
          "name": "account",
          "type": "address"
        }
      ],
      "name": "claimReward",
      "outputs": [],
      "stateMutability": "nonpayable",
      "type": "function"
    },
    {
      "inputs": [
        {
          "internalType": "contract IERC20Upgradeable",
          "name": "token",
          "type": "address"
        },
        {
          "internalType": "uint256",
          "name": "amount",
          "type": "uint256"
        },
        {
          "internalType": "uint256",
          "name": "btcSplit",
          "type": "uint256"
        },
        {
          "internalType": "uint256",
          "name": "ethSplit",
          "type": "uint256"
        }
      ],
      "name": "deposit",
      "outputs": [],
      "stateMutability": "nonpayable",
      "type": "function"
    },
    {
      "inputs": [],
      "name": "getAllPoolInUSD",
      "outputs": [
        {
          "internalType": "uint256",
          "name": "",
          "type": "uint256"
        }
      ],
      "stateMutability": "view",
      "type": "function"
    },
    {
      "inputs": [],
      "name": "getPoolPendingReward",
      "outputs": [
        {
          "internalType": "uint256",
          "name": "pendingWONE",
          "type": "uint256"
        },
        {
          "internalType": "uint256",
          "name": "pendingSUSHI",
          "type": "uint256"
        }
      ],
      "stateMutability": "view",
      "type": "function"
    },
    {
      "inputs": [
        {
          "internalType": "address",
          "name": "account",
          "type": "address"
        }
      ],
      "name": "getUserBalanceInUSD",
      "outputs": [
        {
          "internalType": "uint256",
          "name": "",
          "type": "uint256"
        }
      ],
      "stateMutability": "view",
      "type": "function"
    },
    {
      "inputs": [],
      "name": "harvest",
      "outputs": [],
      "stateMutability": "nonpayable",
      "type": "function"
    },
    {
      "inputs": [
        {
          "internalType": "contract IPowerBomb",
          "name": "_powerBombBTC",
          "type": "address"
        },
        {
          "internalType": "contract IPowerBomb",
          "name": "_powerBombETH",
          "type": "address"
        }
      ],
      "name": "initialize",
      "outputs": [],
      "stateMutability": "nonpayable",
      "type": "function"
    },
    {
      "inputs": [],
      "name": "owner",
      "outputs": [
        {
          "internalType": "address",
          "name": "",
          "type": "address"
        }
      ],
      "stateMutability": "view",
      "type": "function"
    },
    {
      "inputs": [],
      "name": "powerBombBTC",
      "outputs": [
        {
          "internalType": "contract IPowerBomb",
          "name": "",
          "type": "address"
        }
      ],
      "stateMutability": "view",
      "type": "function"
    },
    {
      "inputs": [],
      "name": "powerBombETH",
      "outputs": [
        {
          "internalType": "contract IPowerBomb",
          "name": "",
          "type": "address"
        }
      ],
      "stateMutability": "view",
      "type": "function"
    },
    {
      "inputs": [],
      "name": "renounceOwnership",
      "outputs": [],
      "stateMutability": "nonpayable",
      "type": "function"
    },
    {
      "inputs": [
        {
          "internalType": "contract IPowerBomb",
          "name": "_powerBombBTC",
          "type": "address"
        }
      ],
      "name": "setPowerBombBTC",
      "outputs": [],
      "stateMutability": "nonpayable",
      "type": "function"
    },
    {
      "inputs": [
        {
          "internalType": "contract IPowerBomb",
          "name": "_powerBombETH",
          "type": "address"
        }
      ],
      "name": "setPowerBombETH",
      "outputs": [],
      "stateMutability": "nonpayable",
      "type": "function"
    },
    {
      "inputs": [
        {
          "internalType": "address",
          "name": "newOwner",
          "type": "address"
        }
      ],
      "name": "transferOwnership",
      "outputs": [],
      "stateMutability": "nonpayable",
      "type": "function"
    }
  ],
  "bytecode": "0x608060405234801561001057600080fd5b50611313806100206000396000f3fe608060405234801561001057600080fd5b50600436106100ea5760003560e01c80638da5cb5b1161008c578063ce88b43911610066578063ce88b439146101c1578063d279c191146101d4578063f2fde38b146101e7578063f88aba9b146101fa57600080fd5b80638da5cb5b14610187578063ba63301714610198578063bd244af4146101b957600080fd5b8063616094a7116100c8578063616094a71461011f5780636f1610fc14610141578063715018a61461016c5780637b194ec81461017457600080fd5b80632e87d38d146100ef5780634641257d14610104578063485cc9551461010c575b600080fd5b6101026100fd366004611054565b61020d565b005b610102610262565b61010261011a3660046110ce565b610334565b6101276103da565b604080519283526020830191909152015b60405180910390f35b606654610154906001600160a01b031681565b6040516001600160a01b039091168152602001610138565b610102610516565b610102610182366004611054565b61054c565b6033546001600160a01b0316610154565b6101ab6101a6366004611054565b610598565b604051908152602001610138565b6101ab6106b0565b6101026101cf366004611093565b6107d6565b6101026101e2366004611054565b610986565b6101026101f5366004611054565b610a47565b606554610154906001600160a01b031681565b6033546001600160a01b031633146102405760405162461bcd60e51b8152600401610237906111e1565b60405180910390fd5b606580546001600160a01b0319166001600160a01b0392909216919091179055565b606560009054906101000a90046001600160a01b03166001600160a01b0316634641257d6040518163ffffffff1660e01b8152600401600060405180830381600087803b1580156102b257600080fd5b505af11580156102c6573d6000803e3d6000fd5b50505050606660009054906101000a90046001600160a01b03166001600160a01b0316634641257d6040518163ffffffff1660e01b8152600401600060405180830381600087803b15801561031a57600080fd5b505af115801561032e573d6000803e3d6000fd5b50505050565b600054610100900460ff168061034d575060005460ff16155b6103695760405162461bcd60e51b815260040161023790611193565b600054610100900460ff1615801561038b576000805461ffff19166101011790555b610393610ae2565b606580546001600160a01b038086166001600160a01b031992831617909255606680549285169290911691909117905580156103d5576000805461ff00191690555b505050565b600080600080606560009054906101000a90046001600160a01b03166001600160a01b031663616094a76040518163ffffffff1660e01b8152600401604080518083038186803b15801561042d57600080fd5b505afa158015610441573d6000803e3d6000fd5b505050506040513d601f19601f820116820180604052508101906104659190611120565b91509150600080606660009054906101000a90046001600160a01b03166001600160a01b031663616094a76040518163ffffffff1660e01b8152600401604080518083038186803b1580156104b957600080fd5b505afa1580156104cd573d6000803e3d6000fd5b505050506040513d601f19601f820116820180604052508101906104f19190611120565b90925090506105008285611216565b61050a8285611216565b95509550505050509091565b6033546001600160a01b031633146105405760405162461bcd60e51b8152600401610237906111e1565b61054a6000610b5d565b565b6033546001600160a01b031633146105765760405162461bcd60e51b8152600401610237906111e1565b606680546001600160a01b0319166001600160a01b0392909216919091179055565b60655460405163ba63301760e01b81526001600160a01b038381166004830152600092839291169063ba6330179060240160206040518083038186803b1580156105e157600080fd5b505afa1580156105f5573d6000803e3d6000fd5b505050506040513d601f19601f820116820180604052508101906106199190611107565b60665460405163ba63301760e01b81526001600160a01b0386811660048301529293506000929091169063ba6330179060240160206040518083038186803b15801561066457600080fd5b505afa158015610678573d6000803e3d6000fd5b505050506040513d601f19601f8201168201806040525081019061069c9190611107565b90506106a88183611216565b949350505050565b600080606560009054906101000a90046001600160a01b03166001600160a01b031663bd244af46040518163ffffffff1660e01b815260040160206040518083038186803b15801561070157600080fd5b505afa158015610715573d6000803e3d6000fd5b505050506040513d601f19601f820116820180604052508101906107399190611107565b90506000606660009054906101000a90046001600160a01b03166001600160a01b031663bd244af46040518163ffffffff1660e01b815260040160206040518083038186803b15801561078b57600080fd5b505afa15801561079f573d6000803e3d6000fd5b505050506040513d601f19601f820116820180604052508101906107c39190611107565b90506107cf8183611216565b9250505090565b6107e08183611216565b612710146108305760405162461bcd60e51b815260206004820152601d60248201527f48656c7065723a20696e76616c6964206465706f7369742073706c69740000006044820152606401610237565b6108456001600160a01b038516333086610baf565b60006127106108548486611250565b61085e919061122e565b60655490915061087b906001600160a01b03878116911683610c1a565b606554604051632e1a2fe360e11b81526001600160a01b0387811660048301526024820184905233604483015290911690635c345fc690606401600060405180830381600087803b1580156108cf57600080fd5b505af11580156108e3573d6000803e3d6000fd5b50505050600081856108f5919061126f565b606654909150610912906001600160a01b03888116911683610c1a565b606654604051632e1a2fe360e11b81526001600160a01b0388811660048301526024820184905233604483015290911690635c345fc690606401600060405180830381600087803b15801561096657600080fd5b505af115801561097a573d6000803e3d6000fd5b50505050505050505050565b60655460405163d279c19160e01b81526001600160a01b0383811660048301529091169063d279c19190602401600060405180830381600087803b1580156109cd57600080fd5b505af11580156109e1573d6000803e3d6000fd5b505060665460405163d279c19160e01b81526001600160a01b038581166004830152909116925063d279c1919150602401600060405180830381600087803b158015610a2c57600080fd5b505af1158015610a40573d6000803e3d6000fd5b5050505050565b6033546001600160a01b03163314610a715760405162461bcd60e51b8152600401610237906111e1565b6001600160a01b038116610ad65760405162461bcd60e51b815260206004820152602660248201527f4f776e61626c653a206e6577206f776e657220697320746865207a65726f206160448201526564647265737360d01b6064820152608401610237565b610adf81610b5d565b50565b600054610100900460ff1680610afb575060005460ff16155b610b175760405162461bcd60e51b815260040161023790611193565b600054610100900460ff16158015610b39576000805461ffff19166101011790555b610b41610d3e565b610b49610da8565b8015610adf576000805461ff001916905550565b603380546001600160a01b038381166001600160a01b0319831681179093556040519116919082907f8be0079c531659141344cd1fd0a4f28419497f9722a3daafe3b4186f6b6457e090600090a35050565b6040516001600160a01b038085166024830152831660448201526064810182905261032e9085906323b872dd60e01b906084015b60408051601f198184030181529190526020810180516001600160e01b03166001600160e01b031990931692909217909152610e08565b801580610ca35750604051636eb1769f60e11b81523060048201526001600160a01b03838116602483015284169063dd62ed3e9060440160206040518083038186803b158015610c6957600080fd5b505afa158015610c7d573d6000803e3d6000fd5b505050506040513d601f19601f82011682018060405250810190610ca19190611107565b155b610d0e5760405162461bcd60e51b815260206004820152603660248201527f5361666545524332303a20617070726f76652066726f6d206e6f6e2d7a65726f60448201527520746f206e6f6e2d7a65726f20616c6c6f77616e636560501b6064820152608401610237565b6040516001600160a01b0383166024820152604481018290526103d590849063095ea7b360e01b90606401610be3565b600054610100900460ff1680610d57575060005460ff16155b610d735760405162461bcd60e51b815260040161023790611193565b600054610100900460ff16158015610b49576000805461ffff19166101011790558015610adf576000805461ff001916905550565b600054610100900460ff1680610dc1575060005460ff16155b610ddd5760405162461bcd60e51b815260040161023790611193565b600054610100900460ff16158015610dff576000805461ffff19166101011790555b610b4933610b5d565b6000610e5d826040518060400160405280602081526020017f5361666545524332303a206c6f772d6c6576656c2063616c6c206661696c6564815250856001600160a01b0316610eda9092919063ffffffff16565b8051909150156103d55780806020019051810190610e7b9190611071565b6103d55760405162461bcd60e51b815260206004820152602a60248201527f5361666545524332303a204552433230206f7065726174696f6e20646964206e6044820152691bdd081cdd58d8d9595960b21b6064820152608401610237565b6060610ee98484600085610ef3565b90505b9392505050565b606082471015610f545760405162461bcd60e51b815260206004820152602660248201527f416464726573733a20696e73756666696369656e742062616c616e636520666f6044820152651c8818d85b1b60d21b6064820152608401610237565b843b610fa25760405162461bcd60e51b815260206004820152601d60248201527f416464726573733a2063616c6c20746f206e6f6e2d636f6e74726163740000006044820152606401610237565b600080866001600160a01b03168587604051610fbe9190611144565b60006040518083038185875af1925050503d8060008114610ffb576040519150601f19603f3d011682016040523d82523d6000602084013e611000565b606091505b509150915061101082828661101b565b979650505050505050565b6060831561102a575081610eec565b82511561103a5782518084602001fd5b8160405162461bcd60e51b81526004016102379190611160565b60006020828403121561106657600080fd5b8135610eec816112c8565b60006020828403121561108357600080fd5b81518015158114610eec57600080fd5b600080600080608085870312156110a957600080fd5b84356110b4816112c8565b966020860135965060408601359560600135945092505050565b600080604083850312156110e157600080fd5b82356110ec816112c8565b915060208301356110fc816112c8565b809150509250929050565b60006020828403121561111957600080fd5b5051919050565b6000806040838503121561113357600080fd5b505080516020909101519092909150565b60008251611156818460208701611286565b9190910192915050565b602081526000825180602084015261117f816040850160208701611286565b601f01601f19169190910160400192915050565b6020808252602e908201527f496e697469616c697a61626c653a20636f6e747261637420697320616c72656160408201526d191e481a5b9a5d1a585b1a5e995960921b606082015260800190565b6020808252818101527f4f776e61626c653a2063616c6c6572206973206e6f7420746865206f776e6572604082015260600190565b60008219821115611229576112296112b2565b500190565b60008261124b57634e487b7160e01b600052601260045260246000fd5b500490565b600081600019048311821515161561126a5761126a6112b2565b500290565b600082821015611281576112816112b2565b500390565b60005b838110156112a1578181015183820152602001611289565b8381111561032e5750506000910152565b634e487b7160e01b600052601160045260246000fd5b6001600160a01b0381168114610adf57600080fdfea2646970667358221220352958ffeecf06784114ef6005f7ac65d5519914484dd71488df015861fb153a64736f6c63430008070033",
  "linkReferences": {},
  "deployedLinkReferences": {}
}